:1000000024C06DC13DC03CC03BC03AC039C038C0FF
:1000100037C036C035C017C133C032C031C030C060
:100020002FC0072C7AA5BA6CC590DA3B9365FC8B80
:10003000BC53F810FD3C5692834DBD879D3AB63DAA
:10004000CBC9BF5BBE73DA0FC93F11241FBECFE51A
:10005000D2E0DEBFCDBF10E0A0E6B0E0E6E0FBE01E
:1000600002C005900D92AA36B107D9F720E0AAE6A2
:10007000B0E001C01D92AB37B207E1F7CBD141C56B
:10008000BFCF80916000813021F410926000C09A4F
:10009000089581E080936000C09808958A309105AA
:1000A0001CF481E690E005C08436910524F482E6D4
:1000B00090E03ED00AC0883E23E092071CF483E61D
:1000C00090E0F7CF883893411CF487E790E030C088
:1000D0000895DF9887FDDF9ADE9886FDDE9ADD9829
:1000E00085FDDD9ADC9884FDDC9AD99A0000D998C8
:1000F00000000895D798DB98DA9AD99A000089B35E
:10010000D9980000D99A0000D998000087FDF5CF52
:10011000DA98D79A0895CF93C82FECDFDA98DB9A54
:10012000D9988C2FD6DF8C2F8295807FCF91D1CF1D
:100130000F931F93CF93DF9300D0CDB7DEB78C0121
:100140001A821982E981FA81E00FF11F80818823E8
:1001500071F0D0DFE981FA81E00FF11F8081DBDFF0
:1001600029813A812F5F3F4F3A832983EBCF0F904C
:100170000F90DF91CF911F910F910895CF93C82FCA
:10018000B9DFDA98DB98D9988C2FA3DF8C2F829572
:10019000807FCF919ECFD79AD69AD59AD49AD19A6A
:1001A000D39AD29A87EA91E60197F1F700C000004E
:1001B000DB98D998DA9880E38CDF83EC99E001979B
:1001C000F1F700C0000080E384DF92E49A95F1F734
:1001D00000C080E37EDF8AE18A95F1F700C088E203
:1001E00078DF9AE19A95F1F700C084DF88E2C6DFF4
:1001F00081DF88E0C3DF7EDF81E0C0DF7BDF86E078
:10020000BDDF78DF8CE0BACFB99ABA98C29A109263
:100210007300109274001092750010927600F8949A
:1002200085B7816085BF8BB780648BBF8CEC95E010
:100230009BBD8ABD83B7816083BF12BE89B78160D1
:1002400089BF789408951F920F920FB60F921124D0
:100250008F939F93AF93BF9380916E008823B1F1EA
:100260008091730090917400A0917500B091760018
:100270000196A11DB11D8093730090937400A0930B
:100280007500B09376008091730090917400A091F6
:100290007500B0917600803F9105A105B105B0F0E1
:1002A00087EE93E0A0E0B0E080936F009093700041
:1002B000A0937100B093720083B783BF10926A005D
:1002C00010926B0010926C0010926D00BF91AF9174
:1002D0009F918F910F900FBE0F901F9018951F92B6
:1002E0000F920FB60F9211242F933F934F935F936A
:1002F0006F937F938F939F93AF93BF93EF93FF93EE
:1003000080916A0090916B00A0916C00B0916D009B
:10031000892B8A2B8B2BB1F180916E00811105C046
:1003200081E080936E0012BE3FC010926E008091FB
:10033000730090917400A0917500B091760022B77F
:10034000BA2FA92F982F8827BC01CD01620F711DEC
:10035000811D911D09D226E933E44BE85CE3D2D23A
:10036000D7D160936F007093700080937100909369
:100370007200109273001092740010927500109227
:10038000760008C010926F001092700010927100F9
:100390001092720083B783BF10926A0010926B00B4
:1003A00010926C0010926D00FF91EF91BF91AF9190
:1003B0009F918F917F916F915F914F913F912F917D
:1003C0000F900FBE0F901F901895C19800C0C19A52
:1003D00083E08A95F1F70000C19881E090E0A0E009
:1003E000B0E080936A0090936B00A0936C00B09390
:1003F0006D00089580E487B987E886B9089597B1BC
:100400008770987F892B87B9369A3699FECF84B149
:1004100095B10895CF93DF9300D000D0CDB7DEB76C
:1004200010926A0010926B0010926C0010926D0096
:1004300010926E00B89AAFDEE7DEDCDF80E89EDE69
:1004400080916A0090916B00A0916C00B0916D005A
:10045000892B8A2B8B2B41F487E99AE30197F1F7DB
:1004600000C00000B2DF0DDE60916F00709170007F
:10047000809171009091720077D19B01AC0160E096
:1004800070E086E093E472D06B017C019B01AC01CB
:1004900060E070E080E792E469D04B015C0120E00D
:1004A00030E040E752E4C7D053D069837A838B832E
:1004B0009C8320E030E040EF52E4C701B60122D235
:1004C0002B013C01A7019601C701B6011BD29B017C
:1004D000AC01C301B2014AD084D26B017C0120E09F
:1004E00030E041E655E469817A818B819C810AD2B2
:1004F0002B013C01A7019601C501B40103D29B0168
:10050000AC01C301B20132D020E030E844E853E44A
:10051000F9D120E030E04AE754E48DD0F4D06B010B
:100520007C014AE050E067E770E0C601ADD2C60149
:10053000B5DD85E690E0FCDD80EC20DE9FE3EDE0BC
:10054000F3E09150E040F040E1F700C0000076CFCA
:100550009F939F7746D10F9000203AF49058A2EADB
:100560002AED3FE049E450E413D092C15058BB2734
:10057000AA270ED08DC17ED130F083D120F031F486
:100580009F3F11F41EF44EC10EF4E095E7FB44C109
:10059000E92F8FD180F3BA17620773078407950795
:1005A00018F071F49EF5A7C10EF4E0950B2EBA2F4A
:1005B000A02D0B01B90190010C01CA01A001112469
:1005C000FF27591B99F0593F50F4503E68F11A1615
:1005D000F040A22F232F342F4427585FF3CF4695A6
:1005E00037952795A795F0405395C9F77EF41F16C8
:1005F000BA0B620B730B840BBAF09150A1F0FF0F92
:10060000BB1F661F771F881FC2F70EC0BA0F621F7D
:10061000731F841F48F4879577956795B795F7956D
:100620009E3F08F0B3CF9395880F08F09927EE0FFF
:100630009795879508950CD02BC123D140F01AD1FE
:1006400030F021F45F3F19F0E7C0511155C1EAC005
:1006500030D198F39923C9F35523B1F3951B550B6A
:10066000BB27AA2762177307840738F09F5F5F4F85
:10067000220F331F441FAA1FA9F333D00E2E3AF0C6
:10068000E0E830D091505040E695001CCAF729D0E0
:10069000FE2F27D0660F771F881FBB1F261737072F
:1006A0004807AB07B0E809F0BB0B802DBF01FF275F
:1006B00093585F4F2AF09E3F510568F0ADC01CC1B2
:1006C0005F3FECF3983EDCF3869577956795B79599
:1006D000F7959F5FC9F7880F911D9695879597F9B4
:1006E0000895E1E0660F771F881FBB1F621773072D
:1006F0008407BA0720F0621B730B840BBA0BEE1F42
:1007000088F7E095089504D06894B111F5C0089574
:10071000D8D088F09F5790F0B92F9927B751A0F003
:10072000D1F0660F771F881F991F1AF0BA95C9F785
:1007300012C0B13081F0DFD0B1E00895DCC0672F86
:10074000782F8827B85F39F0B93FCCF38695779535
:100750006795B395D9F73EF490958095709561951E
:100760007F4F8F4F9F4F0895E89409C097FB3EF449
:1007700090958095709561957F4F8F4F9F4F9923EE
:10078000A9F0F92F96E9BB279395F695879577956C
:100790006795B795F111F8CFFAF4BB0F11F460FF2C
:1007A0001BC06F5F7F4F8F4F9F4F16C0882311F084
:1007B00096E911C0772321F09EE8872F762F05C098
:1007C000662371F096E8862F70E060E02AF09A9533
:1007D000660F771F881FDAF7880F9695879597F928
:1007E0000895DF93CF931F930F938B01EC01E2E207
:1007F000F0E01BD04DD09801AE018B01EC0160E020
:1008000070E080E89FE3B2DEECD09801AE010F917A
:100810001F91CF91DF9181C097F99F6780E870E0C9
:1008200060E008959FEF80EC0895DF93CF931F93CE
:100830000F93FF92EF92DF927B018C01689405C0C9
:10084000DA2EEF016AD0FE01E894A5912591359149
:1008500045915591AEF3EF019BDEFE019701A80192
:10086000DA9479F7DF90EF90FF900F911F91CF917D
:10087000DF91089500240A94161617061806090633
:10088000089500240A941216130614060506089506
:10089000092E0394000C11F4882352F0BB0F40F48E
:1008A000BF2B11F460FF04C06F5F7F4F8F4F9F4FCE
:1008B000089557FD9058440F551F59F05F3F71F050
:1008C0004795880F97FB991F61F09F3F79F08795B7
:1008D0000895121613061406551FF2CF4695F1DF40
:1008E00008C0161617061806991FF1CF86957105D0
:1008F000610508940895E894BB2766277727CB0104
:1009000097F908950AD0C4CFB5DF28F0BADF18F000
:10091000952309F081CF86CFEFCFCBDFA8F39923C2
:10092000D9F35523C9F3950F50E0551FAA27EE2799
:10093000FF27BB2700240894679520F4E20FF31FDC
:10094000B41F0A1E220F331F441FAA1F6695A9F762
:10095000779530F4F30FB41F0A1E121E08F4639546
:10096000330F441FAA1F221F769599F7879520F40D
:10097000B40F0A1E121E631F440FAA1F221F331F2B
:100980008695A9F7862F712D602D11249F57504011
:100990008AF0E1F088234AF0EE0FFF1FBB1F661FAD
:1009A000771F881F91505040A9F79E3F510570F066
:1009B00033CFA2CF5F3FECF3983EDCF3869577957B
:1009C0006795B795F795E7959F5FC1F7FE2B880F61
:1009D000911D9695879597F9089511F40EF422CFFD
:1009E0003EC06FDFD0F39923D9F3CEF39F57550B59
:1009F00087FF43D00024A0E640EA90018058569536
:100A0000979528F4805C660F771F881F20F02617C3
:100A10003707480730F4621B730B840B20293129F8
:100A20004A2BA69517940794202531254A2758F775
:100A3000660F771F881F20F026173707480730F406
:100A4000620B730B840B200D311D411DA09581F7A6
:100A5000B901842F9158880F9695879508959F3FE7
:100A600031F0915020F4879577956795B795880F69
:100A7000911D9695879597F9089591505040660F6E
:100A8000771F881FD2F708954532510518F4423078
:100A900008F004C0FB011082CB010895BB274A3047
:100AA00031F4992322F4BDE2909581959F4F01C0C6
:100AB000BB27FB015527AA27880F991FAA1FA41738
:100AC00010F0A41B83955051B9F7A05DAA3308F02C
:100AD000A95DA193009779F7B111B1931192CB0160
:100AE00000C0DC01FC01672F71917723E1F7329799
:100AF00004C07C916D9370836291AE17BF07C8F3F9
:060B00000895F894FFCFF8
:0A0B06000120202000206C6974001B
:00000001FF
